{"abi":[{"type":"constructor","inputs":[{"name":"_teleporter","type":"address","internalType":"address"},{"name":"_verifier","type":"address","internalType":"address"}],"stateMutability":"nonpayable"},{"type":"function","name":"receiveTeleporterMessage","inputs":[{"name":"sourceBlockchainID","type":"bytes32","internalType":"bytes32"},{"name":"originSenderAddress","type":"address","internalType":"address"},{"name":"message","type":"bytes","internalType":"bytes"}],"outputs":[],"stateMutability":"nonpayable"},{"type":"function","name":"teleporter","inputs":[],"outputs":[{"name":"","type":"address","internalType":"contract ITeleporterMessenger"}],"stateMutability":"view"},{"type":"function","name":"verifier","inputs":[],"outputs":[{"name":"","type":"address","internalType":"contract IGroth16Verifier"}],"stateMutability":"view"},{"type":"function","name":"verifyProofDirectly","inputs":[{"name":"_pA","type":"uint256[2]","internalType":"uint256[2]"},{"name":"_pB","type":"uint256[2][2]","internalType":"uint256[2][2]"},{"name":"_pC","type":"uint256[2]","internalType":"uint256[2]"},{"name":"_pubSignals","type":"uint256[1]","internalType":"uint256[1]"}],"outputs":[{"name":"","type":"bool","internalType":"bool"}],"stateMutability":"nonpayable"},{"type":"function","name":"verifyStoredProof","inputs":[],"outputs":[{"name":"","type":"bool","internalType":"bool"}],"stateMutability":"nonpayable"},{"type":"event","name":"ProofReceived","inputs":[{"name":"sourceBlockchainID","type":"bytes32","indexed":true,"internalType":"bytes32"},{"name":"originSenderAddress","type":"address","indexed":true,"internalType":"address"},{"name":"verified","type":"bool","indexed":false,"internalType":"bool"}],"anonymous":false},{"type":"event","name":"ProofVerificationFailed","inputs":[{"name":"sourceBlockchainID","type":"bytes32","indexed":true,"internalType":"bytes32"},{"name":"originSenderAddress","type":"address","indexed":true,"internalType":"address"},{"name":"reason","type":"string","indexed":false,"internalType":"string"}],"anonymous":false},{"type":"event","name":"ProofVerificationSuccess","inputs":[{"name":"publicSignal","type":"uint256","indexed":false,"internalType":"uint256"}],"anonymous":false},{"type":"error","name":"InvalidProof","inputs":[]}],"bytecode":{"object":"0x60c06040523480156200001157600080fd5b506040516200139e3803806200139e833981810160405281019062000037919062000111565b8173ffffffffffffffffffffffffffffffffffffffff1660808173ffffffffffffffffffffffffffffffffffffffff16815250508073ffffffffffffffffffffffffffffffffffffffff1660a08173ffffffffffffffffffffffffffffffffffffffff1681525050505062000158565b600080fd5b600073ffffffffffffffffffffffffffffffffffffffff82169050919050565b6000620000d982620000ac565b9050919050565b620000eb81620000cc565b8114620000f757600080fd5b50565b6000815190506200010b81620000e0565b92915050565b600080604083850312156200012b576200012a620000a7565b5b60006200013b85828601620000fa565b92505060206200014e85828601620000fa565b9150509250929050565b60805160a05161120b62000193600039600081816101040152818161012b01526104e301526000818161038d01526103b1015261120b6000f3fe608060405234801561001057600080fd5b50600436106100575760003560e01c80632b7ac3f31461005c578063856737511461007a5780638fd34e65146100aa578063b3ff9f49146100c8578063c868efaa146100e6575b600080fd5b610064610102565b6040516100719190610874565b60405180910390f35b610094600480360381019061008f9190610b82565b610126565b6040516100a19190610c06565b60405180910390f35b6100b261022d565b6040516100bf9190610c06565b60405180910390f35b6100d061038b565b6040516100dd9190610c42565b60405180910390f35b61010060048036038101906100fb9190610d2c565b6103af565b005b7f000000000000000000000000000000000000000000000000000000000000000081565b6000807f000000000000000000000000000000000000000000000000000000000000000073ffffffffffffffffffffffffffffffffffffffff166343753b4d878787876040518563ffffffff1660e01b81526004016101889493929190610fcd565b602060405180830381865afa1580156101a5573d6000803e3d6000fd5b505050506040513d601f19601f820116820180604052508101906101c99190611040565b90508015610221577fbe5207af30637a04e510c1b33740f25e6192ef71dfccf46113345dd4826e0c0c836000600181106102065761020561106d565b5b602002015160405161021891906110ab565b60405180910390a15b80915050949350505050565b6000806000800160028060200260405190810160405280929190826002801561026b576020028201915b815481526020019060010190808311610257575b50505050509050600080600201600280602002604051908101604052809291906000905b828210156102e8578382600202016002806020026040519081016040528092919082600280156102d4576020028201915b8154815260200190600101908083116102c0575b50505050508152602001906001019061028f565b50505050905060008060060160028060200260405190810160405280929190826002801561032b576020028201915b815481526020019060010190808311610317575b5050505050905060008060080160018060200260405190810160405280929190826001801561036f576020028201915b81548152602001906001019080831161035b575b5050505050905061038284848484610126565b94505050505090565b7f000000000000000000000000000000000000000000000000000000000000000081565b7f000000000000000000000000000000000000000000000000000000000000000073ffffffffffffffffffffffffffffffffffffffff163373ffffffffffffffffffffffffffffffffffffffff161461043d576040517f08c379a000000000000000000000000000000000000000000000000000000000815260040161043490611149565b60405180910390fd5b60008060008085858101906104529190610b82565b9350935093509350604051806080016040528085815260200184815260200183815260200182815250600080820151816000019060026104939291906106d6565b506020820151816002019060026104ab929190610716565b506040820151816006019060026104c39291906106d6565b506060820151816008019060016104db929190610766565b5090505060007f000000000000000000000000000000000000000000000000000000000000000073ffffffffffffffffffffffffffffffffffffffff166343753b4d868686866040518563ffffffff1660e01b81526004016105409493929190610fcd565b602060405180830381865afa15801561055d573d6000803e3d6000fd5b505050506040513d601f19601f820116820180604052508101906105819190611040565b9050801561062d578773ffffffffffffffffffffffffffffffffffffffff16897f5afda27e432de585bce0b69f421a2e3d7fbc65641699c98e2106d4a8ad615fea60016040516105d19190610c06565b60405180910390a37fbe5207af30637a04e510c1b33740f25e6192ef71dfccf46113345dd4826e0c0c8260006001811061060e5761060d61106d565b5b602002015160405161062091906110ab565b60405180910390a16106cb565b8773ffffffffffffffffffffffffffffffffffffffff16897f5afda27e432de585bce0b69f421a2e3d7fbc65641699c98e2106d4a8ad615fea60006040516106759190610c06565b60405180910390a38773ffffffffffffffffffffffffffffffffffffffff16897fcc4ca4ae45cec038a38db87f12b7a92b21c8e41a780eeb2dd6c6bb1d4c142abd6040516106c2906111b5565b60405180910390a35b505050505050505050565b8260028101928215610705579160200282015b828111156107045782518255916020019190600101906106e9565b5b50905061071291906107a6565b5090565b82600280028101928215610755579160200282015b82811115610754578251829060026107449291906106d6565b509160200191906002019061072b565b5b50905061076291906107c3565b5090565b8260018101928215610795579160200282015b82811115610794578251825591602001919060010190610779565b5b5090506107a291906107a6565b5090565b5b808211156107bf5760008160009055506001016107a7565b5090565b5b808211156107e357600081816107da91906107e7565b506002016107c4565b5090565b506000815560010160009055565b600073ffffffffffffffffffffffffffffffffffffffff82169050919050565b6000819050919050565b600061083a610835610830846107f5565b610815565b6107f5565b9050919050565b600061084c8261081f565b9050919050565b600061085e82610841565b9050919050565b61086e81610853565b82525050565b60006020820190506108896000830184610865565b92915050565b6000604051905090565b600080fd5b600080fd5b600080fd5b6000601f19601f8301169050919050565b7f4e487b7100000000000000000000000000000000000000000000000000000000600052604160045260246000fd5b6108f1826108a8565b810181811067ffffffffffffffff821117156109105761090f6108b9565b5b80604052505050565b600061092361088f565b905061092f82826108e8565b919050565b600067ffffffffffffffff82111561094f5761094e6108b9565b5b602082029050919050565b600080fd5b6000819050919050565b6109728161095f565b811461097d57600080fd5b50565b60008135905061098f81610969565b92915050565b60006109a86109a384610934565b610919565b905080602084028301858111156109c2576109c161095a565b5b835b818110156109eb57806109d78882610980565b8452602084019350506020810190506109c4565b5050509392505050565b600082601f830112610a0a57610a096108a3565b5b6002610a17848285610995565b91505092915050565b600067ffffffffffffffff821115610a3b57610a3a6108b9565b5b602082029050919050565b6000610a59610a5484610a20565b610919565b90508060408402830185811115610a7357610a7261095a565b5b835b81811015610a9c5780610a8888826109f5565b845260208401935050604081019050610a75565b5050509392505050565b600082601f830112610abb57610aba6108a3565b5b6002610ac8848285610a46565b91505092915050565b600067ffffffffffffffff821115610aec57610aeb6108b9565b5b602082029050919050565b6000610b0a610b0584610ad1565b610919565b90508060208402830185811115610b2457610b2361095a565b5b835b81811015610b4d5780610b398882610980565b845260208401935050602081019050610b26565b5050509392505050565b600082601f830112610b6c57610b6b6108a3565b5b6001610b79848285610af7565b91505092915050565b6000806000806101208587031215610b9d57610b9c610899565b5b6000610bab878288016109f5565b9450506040610bbc87828801610aa6565b93505060c0610bcd878288016109f5565b925050610100610bdf87828801610b57565b91505092959194509250565b60008115159050919050565b610c0081610beb565b82525050565b6000602082019050610c1b6000830184610bf7565b92915050565b6000610c2c82610841565b9050919050565b610c3c81610c21565b82525050565b6000602082019050610c576000830184610c33565b92915050565b6000819050919050565b610c7081610c5d565b8114610c7b57600080fd5b50565b600081359050610c8d81610c67565b92915050565b6000610c9e826107f5565b9050919050565b610cae81610c93565b8114610cb957600080fd5b50565b600081359050610ccb81610ca5565b92915050565b600080fd5b60008083601f840112610cec57610ceb6108a3565b5b8235905067ffffffffffffffff811115610d0957610d08610cd1565b5b602083019150836001820283011115610d2557610d2461095a565b5b9250929050565b60008060008060608587031215610d4657610d45610899565b5b6000610d5487828801610c7e565b9450506020610d6587828801610cbc565b935050604085013567ffffffffffffffff811115610d8657610d8561089e565b5b610d9287828801610cd6565b925092505092959194509250565b600060029050919050565b600081905092915050565b6000819050919050565b610dc98161095f565b82525050565b6000610ddb8383610dc0565b60208301905092915050565b6000602082019050919050565b610dfd81610da0565b610e078184610dab565b9250610e1282610db6565b8060005b83811015610e43578151610e2a8782610dcf565b9650610e3583610de7565b925050600181019050610e16565b505050505050565b600060029050919050565b600081905092915050565b6000819050919050565b600081905092915050565b610e7f81610da0565b610e898184610e6b565b9250610e9482610db6565b8060005b83811015610ec5578151610eac8782610dcf565b9650610eb783610de7565b925050600181019050610e98565b505050505050565b6000610ed98383610e76565b60408301905092915050565b6000602082019050919050565b610efb81610e4b565b610f058184610e56565b9250610f1082610e61565b8060005b83811015610f41578151610f288782610ecd565b9650610f3383610ee5565b925050600181019050610f14565b505050505050565b600060019050919050565b600081905092915050565b6000819050919050565b6000602082019050919050565b610f7f81610f49565b610f898184610f54565b9250610f9482610f5f565b8060005b83811015610fc5578151610fac8782610dcf565b9650610fb783610f69565b925050600181019050610f98565b505050505050565b600061012082019050610fe36000830187610df4565b610ff06040830186610ef2565b610ffd60c0830185610df4565b61100b610100830184610f76565b95945050505050565b61101d81610beb565b811461102857600080fd5b50565b60008151905061103a81611014565b92915050565b60006020828403121561105657611055610899565b5b60006110648482850161102b565b91505092915050565b7f4e487b7100000000000000000000000000000000000000000000000000000000600052603260045260246000fd5b6110a58161095f565b82525050565b60006020820190506110c0600083018461109c565b92915050565b600082825260208201905092915050565b7f4f6e6c792054656c65706f727465722063616e2064656c69766572206d65737360008201527f6167657300000000000000000000000000000000000000000000000000000000602082015250565b60006111336024836110c6565b915061113e826110d7565b604082019050919050565b6000602082019050818103600083015261116281611126565b9050919050565b7f496e76616c69642070726f6f6600000000000000000000000000000000000000600082015250565b600061119f600d836110c6565b91506111aa82611169565b602082019050919050565b600060208201905081810360008301526111ce81611192565b905091905056fea2646970667358221220265835095d1c7daa0c384fcd216f3fee6960bec6b8a6a7e3ae60cb42ab40456964736f6c63430008120033","linkReferences":{}},"methodIdentifiers":{"receiveTeleporterMessage(bytes32,address,bytes)":"c868efaa","teleporter()":"b3ff9f49","verifier()":"2b7ac3f3","verifyProofDirectly(uint256[2],uint256[2][2],uint256[2],uint256[1])":"85673751","verifyStoredProof()":"8fd34e65"},"id":0}