{"abi":[{"type":"constructor","inputs":[{"name":"_teleporter","type":"address","internalType":"address"},{"name":"_verifier","type":"address","internalType":"address"}],"stateMutability":"nonpayable"},{"type":"function","name":"getLatestProof","inputs":[],"outputs":[{"name":"pubSignals","type":"uint256[1]","internalType":"uint256[1]"}],"stateMutability":"view"},{"type":"function","name":"isProofValid","inputs":[],"outputs":[{"name":"","type":"bool","internalType":"bool"}],"stateMutability":"view"},{"type":"function","name":"receiveTeleporterMessage","inputs":[{"name":"sourceBlockchainID","type":"bytes32","internalType":"bytes32"},{"name":"originSenderAddress","type":"address","internalType":"address"},{"name":"message","type":"bytes","internalType":"bytes"}],"outputs":[],"stateMutability":"nonpayable"},{"type":"function","name":"teleporter","inputs":[],"outputs":[{"name":"","type":"address","internalType":"contract ITeleporterMessenger"}],"stateMutability":"view"},{"type":"function","name":"verifier","inputs":[],"outputs":[{"name":"","type":"address","internalType":"contract IGroth16Verifier"}],"stateMutability":"view"},{"type":"function","name":"verifyProofDirectly","inputs":[{"name":"_pA","type":"uint256[2]","internalType":"uint256[2]"},{"name":"_pB","type":"uint256[2][2]","internalType":"uint256[2][2]"},{"name":"_pC","type":"uint256[2]","internalType":"uint256[2]"},{"name":"_pubSignals","type":"uint256[1]","internalType":"uint256[1]"}],"outputs":[{"name":"","type":"bool","internalType":"bool"}],"stateMutability":"nonpayable"},{"type":"function","name":"verifyStoredProof","inputs":[],"outputs":[{"name":"","type":"bool","internalType":"bool"}],"stateMutability":"nonpayable"},{"type":"event","name":"ProofReceived","inputs":[{"name":"sourceBlockchainID","type":"bytes32","indexed":true,"internalType":"bytes32"},{"name":"originSenderAddress","type":"address","indexed":true,"internalType":"address"},{"name":"verified","type":"bool","indexed":false,"internalType":"bool"}],"anonymous":false},{"type":"event","name":"ProofVerificationFailed","inputs":[{"name":"sourceBlockchainID","type":"bytes32","indexed":true,"internalType":"bytes32"},{"name":"originSenderAddress","type":"address","indexed":true,"internalType":"address"},{"name":"reason","type":"string","indexed":false,"internalType":"string"}],"anonymous":false},{"type":"event","name":"ProofVerificationSuccess","inputs":[{"name":"publicSignal","type":"uint256","indexed":false,"internalType":"uint256"}],"anonymous":false},{"type":"error","name":"InvalidProof","inputs":[]}],"bytecode":{"object":"0x60c06040523480156200001157600080fd5b50604051620014ed380380620014ed833981810160405281019062000037919062000111565b8173ffffffffffffffffffffffffffffffffffffffff1660808173ffffffffffffffffffffffffffffffffffffffff16815250508073ffffffffffffffffffffffffffffffffffffffff1660a08173ffffffffffffffffffffffffffffffffffffffff1681525050505062000158565b600080fd5b600073ffffffffffffffffffffffffffffffffffffffff82169050919050565b6000620000d982620000ac565b9050919050565b620000eb81620000cc565b8114620000f757600080fd5b50565b6000815190506200010b81620000e0565b92915050565b600080604083850312156200012b576200012a620000a7565b5b60006200013b85828601620000fa565b92505060206200014e85828601620000fa565b9150509250929050565b60805160a05161135a6200019360003960008181610179015281816101ee01526105f501526000818161049f01526104c3015261135a6000f3fe608060405234801561001057600080fd5b506004361061007d5760003560e01c8063856737511161005b57806385673751146100dc5780638fd34e651461010c578063b3ff9f491461012a578063c868efaa146101485761007d565b80631df548bf146100825780632b7ac3f3146100a057806373745091146100be575b600080fd5b61008a610164565b6040516100979190610944565b60405180910390f35b6100a8610177565b6040516100b591906109de565b60405180910390f35b6100c661019b565b6040516100d39190610aae565b60405180910390f35b6100f660048036038101906100f19190610db2565b6101e9565b6040516101039190610944565b60405180910390f35b61011461033f565b6040516101219190610944565b60405180910390f35b61013261049d565b60405161013f9190610e3c565b60405180910390f35b610162600480360381019061015d9190610f26565b6104c1565b005b600960009054906101000a900460ff1681565b7f000000000000000000000000000000000000000000000000000000000000000081565b6101a36107e8565b60006008016001806020026040519081016040528092919082600180156101df576020028201915b8154815260200190600101908083116101cb575b5050505050905090565b6000807f000000000000000000000000000000000000000000000000000000000000000073ffffffffffffffffffffffffffffffffffffffff166343753b4d878787876040518563ffffffff1660e01b815260040161024b949392919061111c565b602060405180830381865afa158015610268573d6000803e3d6000fd5b505050506040513d601f19601f8201168201806040525081019061028c919061118f565b905080156102e4577fbe5207af30637a04e510c1b33740f25e6192ef71dfccf46113345dd4826e0c0c836000600181106102c9576102c86111bc565b5b60200201516040516102db91906111fa565b60405180910390a15b7fbe5207af30637a04e510c1b33740f25e6192ef71dfccf46113345dd4826e0c0c83600060018110610319576103186111bc565b5b602002015160405161032b91906111fa565b60405180910390a180915050949350505050565b6000806000800160028060200260405190810160405280929190826002801561037d576020028201915b815481526020019060010190808311610369575b50505050509050600080600201600280602002604051908101604052809291906000905b828210156103fa578382600202016002806020026040519081016040528092919082600280156103e6576020028201915b8154815260200190600101908083116103d2575b5050505050815260200190600101906103a1565b50505050905060008060060160028060200260405190810160405280929190826002801561043d576020028201915b815481526020019060010190808311610429575b50505050509050600080600801600180602002604051908101604052809291908260018015610481576020028201915b81548152602001906001019080831161046d575b50505050509050610494848484846101e9565b94505050505090565b7f000000000000000000000000000000000000000000000000000000000000000081565b7f000000000000000000000000000000000000000000000000000000000000000073ffffffffffffffffffffffffffffffffffffffff163373ffffffffffffffffffffffffffffffffffffffff161461054f576040517f08c379a000000000000000000000000000000000000000000000000000000000815260040161054690611298565b60405180910390fd5b60008060008085858101906105649190610db2565b9350935093509350604051806080016040528085815260200184815260200183815260200182815250600080820151816000019060026105a592919061080a565b506020820151816002019060026105bd92919061084a565b506040820151816006019060026105d592919061080a565b506060820151816008019060016105ed92919061089a565b5090505060007f000000000000000000000000000000000000000000000000000000000000000073ffffffffffffffffffffffffffffffffffffffff166343753b4d868686866040518563ffffffff1660e01b8152600401610652949392919061111c565b602060405180830381865afa15801561066f573d6000803e3d6000fd5b505050506040513d601f19601f82011682018060405250810190610693919061118f565b9050801561073f578773ffffffffffffffffffffffffffffffffffffffff16897f5afda27e432de585bce0b69f421a2e3d7fbc65641699c98e2106d4a8ad615fea60016040516106e39190610944565b60405180910390a37fbe5207af30637a04e510c1b33740f25e6192ef71dfccf46113345dd4826e0c0c826000600181106107205761071f6111bc565b5b602002015160405161073291906111fa565b60405180910390a16107dd565b8773ffffffffffffffffffffffffffffffffffffffff16897f5afda27e432de585bce0b69f421a2e3d7fbc65641699c98e2106d4a8ad615fea60006040516107879190610944565b60405180910390a38773ffffffffffffffffffffffffffffffffffffffff16897fcc4ca4ae45cec038a38db87f12b7a92b21c8e41a780eeb2dd6c6bb1d4c142abd6040516107d490611304565b60405180910390a35b505050505050505050565b6040518060200160405280600190602082028036833780820191505090505090565b8260028101928215610839579160200282015b8281111561083857825182559160200191906001019061081d565b5b50905061084691906108da565b5090565b82600280028101928215610889579160200282015b828111156108885782518290600261087892919061080a565b509160200191906002019061085f565b5b50905061089691906108f7565b5090565b82600181019282156108c9579160200282015b828111156108c85782518255916020019190600101906108ad565b5b5090506108d691906108da565b5090565b5b808211156108f35760008160009055506001016108db565b5090565b5b80821115610917576000818161090e919061091b565b506002016108f8565b5090565b506000815560010160009055565b60008115159050919050565b61093e81610929565b82525050565b60006020820190506109596000830184610935565b92915050565b600073ffffffffffffffffffffffffffffffffffffffff82169050919050565b6000819050919050565b60006109a461099f61099a8461095f565b61097f565b61095f565b9050919050565b60006109b682610989565b9050919050565b60006109c8826109ab565b9050919050565b6109d8816109bd565b82525050565b60006020820190506109f360008301846109cf565b92915050565b600060019050919050565b600081905092915050565b6000819050919050565b6000819050919050565b610a2c81610a19565b82525050565b6000610a3e8383610a23565b60208301905092915050565b6000602082019050919050565b610a60816109f9565b610a6a8184610a04565b9250610a7582610a0f565b8060005b83811015610aa6578151610a8d8782610a32565b9650610a9883610a4a565b925050600181019050610a79565b505050505050565b6000602082019050610ac36000830184610a57565b92915050565b6000604051905090565b600080fd5b600080fd5b600080fd5b6000601f19601f8301169050919050565b7f4e487b7100000000000000000000000000000000000000000000000000000000600052604160045260246000fd5b610b2b82610ae2565b810181811067ffffffffffffffff82111715610b4a57610b49610af3565b5b80604052505050565b6000610b5d610ac9565b9050610b698282610b22565b919050565b600067ffffffffffffffff821115610b8957610b88610af3565b5b602082029050919050565b600080fd5b610ba281610a19565b8114610bad57600080fd5b50565b600081359050610bbf81610b99565b92915050565b6000610bd8610bd384610b6e565b610b53565b90508060208402830185811115610bf257610bf1610b94565b5b835b81811015610c1b5780610c078882610bb0565b845260208401935050602081019050610bf4565b5050509392505050565b600082601f830112610c3a57610c39610add565b5b6002610c47848285610bc5565b91505092915050565b600067ffffffffffffffff821115610c6b57610c6a610af3565b5b602082029050919050565b6000610c89610c8484610c50565b610b53565b90508060408402830185811115610ca357610ca2610b94565b5b835b81811015610ccc5780610cb88882610c25565b845260208401935050604081019050610ca5565b5050509392505050565b600082601f830112610ceb57610cea610add565b5b6002610cf8848285610c76565b91505092915050565b600067ffffffffffffffff821115610d1c57610d1b610af3565b5b602082029050919050565b6000610d3a610d3584610d01565b610b53565b90508060208402830185811115610d5457610d53610b94565b5b835b81811015610d7d5780610d698882610bb0565b845260208401935050602081019050610d56565b5050509392505050565b600082601f830112610d9c57610d9b610add565b5b6001610da9848285610d27565b91505092915050565b6000806000806101208587031215610dcd57610dcc610ad3565b5b6000610ddb87828801610c25565b9450506040610dec87828801610cd6565b93505060c0610dfd87828801610c25565b925050610100610e0f87828801610d87565b91505092959194509250565b6000610e26826109ab565b9050919050565b610e3681610e1b565b82525050565b6000602082019050610e516000830184610e2d565b92915050565b6000819050919050565b610e6a81610e57565b8114610e7557600080fd5b50565b600081359050610e8781610e61565b92915050565b6000610e988261095f565b9050919050565b610ea881610e8d565b8114610eb357600080fd5b50565b600081359050610ec581610e9f565b92915050565b600080fd5b60008083601f840112610ee657610ee5610add565b5b8235905067ffffffffffffffff811115610f0357610f02610ecb565b5b602083019150836001820283011115610f1f57610f1e610b94565b5b9250929050565b60008060008060608587031215610f4057610f3f610ad3565b5b6000610f4e87828801610e78565b9450506020610f5f87828801610eb6565b935050604085013567ffffffffffffffff811115610f8057610f7f610ad8565b5b610f8c87828801610ed0565b925092505092959194509250565b600060029050919050565b600081905092915050565b6000819050919050565b6000602082019050919050565b610fd081610f9a565b610fda8184610fa5565b9250610fe582610fb0565b8060005b83811015611016578151610ffd8782610a32565b965061100883610fba565b925050600181019050610fe9565b505050505050565b600060029050919050565b600081905092915050565b6000819050919050565b600081905092915050565b61105281610f9a565b61105c818461103e565b925061106782610fb0565b8060005b8381101561109857815161107f8782610a32565b965061108a83610fba565b92505060018101905061106b565b505050505050565b60006110ac8383611049565b60408301905092915050565b6000602082019050919050565b6110ce8161101e565b6110d88184611029565b92506110e382611034565b8060005b838110156111145781516110fb87826110a0565b9650611106836110b8565b9250506001810190506110e7565b505050505050565b6000610120820190506111326000830187610fc7565b61113f60408301866110c5565b61114c60c0830185610fc7565b61115a610100830184610a57565b95945050505050565b61116c81610929565b811461117757600080fd5b50565b60008151905061118981611163565b92915050565b6000602082840312156111a5576111a4610ad3565b5b60006111b38482850161117a565b91505092915050565b7f4e487b7100000000000000000000000000000000000000000000000000000000600052603260045260246000fd5b6111f481610a19565b82525050565b600060208201905061120f60008301846111eb565b92915050565b600082825260208201905092915050565b7f4f6e6c792054656c65706f727465722063616e2064656c69766572206d65737360008201527f6167657300000000000000000000000000000000000000000000000000000000602082015250565b6000611282602483611215565b915061128d82611226565b604082019050919050565b600060208201905081810360008301526112b181611275565b9050919050565b7f496e76616c69642070726f6f6600000000000000000000000000000000000000600082015250565b60006112ee600d83611215565b91506112f9826112b8565b602082019050919050565b6000602082019050818103600083015261131d816112e1565b905091905056fea2646970667358221220b7242cf726be9c45bd33f48acd34193b8ce636257addc9936af5f9f63386cee864736f6c63430008120033","linkReferences":{}},"methodIdentifiers":{"getLatestProof()":"73745091","isProofValid()":"1df548bf","receiveTeleporterMessage(bytes32,address,bytes)":"c868efaa","teleporter()":"b3ff9f49","verifier()":"2b7ac3f3","verifyProofDirectly(uint256[2],uint256[2][2],uint256[2],uint256[1])":"85673751","verifyStoredProof()":"8fd34e65"},"id":0}