{"abi":[{"type":"constructor","inputs":[{"name":"_teleporter","type":"address","internalType":"address"},{"name":"_verifier","type":"address","internalType":"address"}],"stateMutability":"nonpayable"},{"type":"function","name":"sendProof","inputs":[{"name":"destinationBlockchainID","type":"bytes32","internalType":"bytes32"},{"name":"destinationAddress","type":"address","internalType":"address"},{"name":"_pA","type":"uint256[2]","internalType":"uint256[2]"},{"name":"_pB","type":"uint256[2][2]","internalType":"uint256[2][2]"},{"name":"_pC","type":"uint256[2]","internalType":"uint256[2]"},{"name":"_pubSignals","type":"uint256[1]","internalType":"uint256[1]"}],"outputs":[],"stateMutability":"payable"},{"type":"function","name":"teleporter","inputs":[],"outputs":[{"name":"","type":"address","internalType":"contract ITeleporterMessenger"}],"stateMutability":"view"},{"type":"function","name":"verifier","inputs":[],"outputs":[{"name":"","type":"address","internalType":"contract IGroth16Verifier"}],"stateMutability":"view"},{"type":"event","name":"ProofSent","inputs":[{"name":"destinationBlockchainID","type":"bytes32","indexed":true,"internalType":"bytes32"},{"name":"destinationAddress","type":"address","indexed":false,"internalType":"address"}],"anonymous":false}],"bytecode":{"object":"0x60c060405234801561001057600080fd5b50604051610e30380380610e3083398181016040528101906100329190610104565b8173ffffffffffffffffffffffffffffffffffffffff1660808173ffffffffffffffffffffffffffffffffffffffff16815250508073ffffffffffffffffffffffffffffffffffffffff1660a08173ffffffffffffffffffffffffffffffffffffffff16815250505050610144565b600080fd5b600073ffffffffffffffffffffffffffffffffffffffff82169050919050565b60006100d1826100a6565b9050919050565b6100e1816100c6565b81146100ec57600080fd5b50565b6000815190506100fe816100d8565b92915050565b6000806040838503121561011b5761011a6100a1565b5b6000610129858286016100ef565b925050602061013a858286016100ef565b9150509250929050565b60805160a051610cba6101766000396000818160ad015261018501526000818161028e01526104260152610cba6000f3fe6080604052600436106100345760003560e01c80632b7ac3f314610039578063aa4c275b14610064578063b3ff9f4914610080575b600080fd5b34801561004557600080fd5b5061004e6100ab565b60405161005b91906104c7565b60405180910390f35b61007e600480360381019061007991906105c6565b6100cf565b005b34801561008c57600080fd5b50610095610424565b6040516100a29190610677565b60405180910390f35b7f000000000000000000000000000000000000000000000000000000000000000081565b6000801b8603610114576040517f08c379a000000000000000000000000000000000000000000000000000000000815260040161010b906106ef565b60405180910390fd5b600073ffffffffffffffffffffffffffffffffffffffff168573ffffffffffffffffffffffffffffffffffffffff1603610183576040517f08c379a000000000000000000000000000000000000000000000000000000000815260040161017a9061075b565b60405180910390fd5b7f000000000000000000000000000000000000000000000000000000000000000073ffffffffffffffffffffffffffffffffffffffff166343753b4d858585856040518563ffffffff1660e01b81526004016101e29493929190610863565b602060405180830381865afa1580156101ff573d6000803e3d6000fd5b505050506040513d601f19601f8201168201806040525081019061022391906108e2565b610262576040517f08c379a00000000000000000000000000000000000000000000000000000000081526004016102599061095b565b60405180910390fd5b60008484848460405160200161027b9493929190610863565b60405160208183030381529060405290507f000000000000000000000000000000000000000000000000000000000000000073ffffffffffffffffffffffffffffffffffffffff1663624488506040518060c001604052808a81526020018973ffffffffffffffffffffffffffffffffffffffff1681526020016040518060400160405280600073ffffffffffffffffffffffffffffffffffffffff168152602001600081525081526020016207a1208152602001600067ffffffffffffffff81111561034b5761034a61097b565b5b6040519080825280602002602001820160405280156103795781602001602082028036833780820191505090505b508152602001848152506040518263ffffffff1660e01b815260040161039f9190610bdf565b6020604051808303816000875af11580156103be573d6000803e3d6000fd5b505050506040513d601f19601f820116820180604052508101906103e29190610c2d565b50867faddfaca80cbb5646a59f6ffba9d093cd78cf42436a9aea88563b5c04ff80fac9876040516104139190610c69565b60405180910390a250505050505050565b7f000000000000000000000000000000000000000000000000000000000000000081565b600073ffffffffffffffffffffffffffffffffffffffff82169050919050565b6000819050919050565b600061048d61048861048384610448565b610468565b610448565b9050919050565b600061049f82610472565b9050919050565b60006104b182610494565b9050919050565b6104c1816104a6565b82525050565b60006020820190506104dc60008301846104b8565b92915050565b600080fd5b6000819050919050565b6104fa816104e7565b811461050557600080fd5b50565b600081359050610517816104f1565b92915050565b600061052882610448565b9050919050565b6105388161051d565b811461054357600080fd5b50565b6000813590506105558161052f565b92915050565b600080fd5b60008190508260206002028201111561057c5761057b61055b565b5b92915050565b60008190508260406002028201111561059e5761059d61055b565b5b92915050565b6000819050826020600102820111156105c0576105bf61055b565b5b92915050565b60008060008060008061016087890312156105e4576105e36104e2565b5b60006105f289828a01610508565b965050602061060389828a01610546565b955050604061061489828a01610560565b945050608061062589828a01610582565b93505061010061063789828a01610560565b92505061014061064989828a016105a4565b9150509295509295509295565b600061066182610494565b9050919050565b61067181610656565b82525050565b600060208201905061068c6000830184610668565b92915050565b600082825260208201905092915050565b7f496e76616c69642064657374696e6174696f6e00000000000000000000000000600082015250565b60006106d9601383610692565b91506106e4826106a3565b602082019050919050565b60006020820190508181036000830152610708816106cc565b9050919050565b7f496e76616c696420616464726573730000000000000000000000000000000000600082015250565b6000610745600f83610692565b91506107508261070f565b602082019050919050565b6000602082019050818103600083015261077481610738565b9050919050565b82818337505050565b6107906040838361077b565b5050565b600060029050919050565b600081905092915050565b6000819050919050565b6107c06040838361077b565b5050565b60006107d083836107b4565b60408301905092915050565b600082905092915050565b6000604082019050919050565b6107fd81610794565b610807818461079f565b9250610812826107aa565b8060005b8381101561084b5761082882846107dc565b61083287826107c4565b965061083d836107e7565b925050600181019050610816565b505050505050565b61085f6020838361077b565b5050565b6000610120820190506108796000830187610784565b61088660408301866107f4565b61089360c0830185610784565b6108a1610100830184610853565b95945050505050565b60008115159050919050565b6108bf816108aa565b81146108ca57600080fd5b50565b6000815190506108dc816108b6565b92915050565b6000602082840312156108f8576108f76104e2565b5b6000610906848285016108cd565b91505092915050565b7f496e76616c69642070726f6f6600000000000000000000000000000000000000600082015250565b6000610945600d83610692565b91506109508261090f565b602082019050919050565b6000602082019050818103600083015261097481610938565b9050919050565b7f4e487b7100000000000000000000000000000000000000000000000000000000600052604160045260246000fd5b6109b3816104e7565b82525050565b6109c28161051d565b82525050565b6000819050919050565b6109db816109c8565b82525050565b6040820160008201516109f760008501826109b9565b506020820151610a0a60208501826109d2565b50505050565b600081519050919050565b600082825260208201905092915050565b6000819050602082019050919050565b6000610a4883836109b9565b60208301905092915050565b6000602082019050919050565b6000610a6c82610a10565b610a768185610a1b565b9350610a8183610a2c565b8060005b83811015610ab2578151610a998882610a3c565b9750610aa483610a54565b925050600181019050610a85565b5085935050505092915050565b600081519050919050565b600082825260208201905092915050565b60005b83811015610af9578082015181840152602081019050610ade565b60008484015250505050565b6000601f19601f8301169050919050565b6000610b2182610abf565b610b2b8185610aca565b9350610b3b818560208601610adb565b610b4481610b05565b840191505092915050565b600060e083016000830151610b6760008601826109aa565b506020830151610b7a60208601826109b9565b506040830151610b8d60408601826109e1565b506060830151610ba060808601826109d2565b50608083015184820360a0860152610bb88282610a61565b91505060a083015184820360c0860152610bd28282610b16565b9150508091505092915050565b60006020820190508181036000830152610bf98184610b4f565b905092915050565b610c0a816109c8565b8114610c1557600080fd5b50565b600081519050610c2781610c01565b92915050565b600060208284031215610c4357610c426104e2565b5b6000610c5184828501610c18565b91505092915050565b610c638161051d565b82525050565b6000602082019050610c7e6000830184610c5a565b9291505056fea26469706673582212201dd8df2a4f27b11ed9f01bc054d294c1396277a7f064d956dcb2d78f3e5afd4e64736f6c63430008120033","linkReferences":{}},"methodIdentifiers":{"sendProof(bytes32,address,uint256[2],uint256[2][2],uint256[2],uint256[1])":"aa4c275b","teleporter()":"b3ff9f49","verifier()":"2b7ac3f3"},"id":0}